{
    "abi": [
        {
            "type": "function",
            "name": "MIN_DELAY",
            "inputs": [],
            "outputs": [
                {
                    "name": "",
                    "type": "uint256",
                    "internalType": "uint256"
                }
            ],
            "stateMutability": "view"
        },
        {
            "type": "function",
            "name": "commit",
            "inputs": [
                {
                    "name": "commitHash",
                    "type": "bytes32",
                    "internalType": "bytes32"
                }
            ],
            "outputs": [],
            "stateMutability": "nonpayable"
        },
        {
            "type": "function",
            "name": "commitments",
            "inputs": [
                {
                    "name": "commitHash",
                    "type": "bytes32",
                    "internalType": "bytes32"
                }
            ],
            "outputs": [
                {
                    "name": "user",
                    "type": "address",
                    "internalType": "address"
                },
                {
                    "name": "commitHash",
                    "type": "bytes32",
                    "internalType": "bytes32"
                },
                {
                    "name": "timestamp",
                    "type": "uint256",
                    "internalType": "uint256"
                },
                {
                    "name": "revealed",
                    "type": "bool",
                    "internalType": "bool"
                }
            ],
            "stateMutability": "view"
        },
        {
            "type": "function",
            "name": "reveal",
            "inputs": [
                {
                    "name": "to",
                    "type": "address",
                    "internalType": "address"
                },
                {
                    "name": "amount",
                    "type": "uint256",
                    "internalType": "uint256"
                },
                {
                    "name": "nonce",
                    "type": "uint256",
                    "internalType": "uint256"
                },
                {
                    "name": "salt",
                    "type": "bytes32",
                    "internalType": "bytes32"
                }
            ],
            "outputs": [],
            "stateMutability": "nonpayable"
        },
        {
            "type": "event",
            "name": "Committed",
            "inputs": [
                {
                    "name": "commitHash",
                    "type": "bytes32",
                    "indexed": true,
                    "internalType": "bytes32"
                },
                {
                    "name": "user",
                    "type": "address",
                    "indexed": true,
                    "internalType": "address"
                },
                {
                    "name": "timestamp",
                    "type": "uint256",
                    "indexed": false,
                    "internalType": "uint256"
                }
            ],
            "anonymous": false
        },
        {
            "type": "event",
            "name": "Revealed",
            "inputs": [
                {
                    "name": "commitHash",
                    "type": "bytes32",
                    "indexed": true,
                    "internalType": "bytes32"
                },
                {
                    "name": "user",
                    "type": "address",
                    "indexed": true,
                    "internalType": "address"
                }
            ],
            "anonymous": false
        },
        {
            "type": "error",
            "name": "CommitRegistry__AlreadyCommitted",
            "inputs": []
        },
        {
            "type": "error",
            "name": "CommitRegistry__AlreadyRevealed",
            "inputs": []
        },
        {
            "type": "error",
            "name": "CommitRegistry__InvalidReveal",
            "inputs": []
        },
        {
            "type": "error",
            "name": "CommitRegistry__NotOwner",
            "inputs": []
        },
        {
            "type": "error",
            "name": "CommitRegistry__RevealTooEarly",
            "inputs": []
        },
        {
            "type": "error",
            "name": "CommitRegistry__UnknownCommit",
            "inputs": []
        }
    ],
    "bytecode": {
        "object": "0x6080604052348015600e575f5ffd5b506107c28061001c5f395ff3fe608060405234801561000f575f5ffd5b506004361061004a575f3560e01c8063839df9451461004e5780639f81aed714610081578063a92810d81461009f578063f14fcbc8146100bb575b5f5ffd5b6100686004803603810190610063919061052a565b6100d7565b60405161007894939291906105d5565b60405180910390f35b61008961012d565b6040516100969190610618565b60405180910390f35b6100b960048036038101906100b49190610685565b610132565b005b6100d560048036038101906100d0919061052a565b610392565b005b5f602052805f5260405f205f91509050805f015f9054906101000a900473ffffffffffffffffffffffffffffffffffffffff1690806001015490806002015490806003015f9054906101000a900460ff16905084565b600f81565b5f8484848460405160200161014a94939291906106e9565b6040516020818303038152906040528051906020012090505f5f5f8381526020019081526020015f2090505f8160020154036101b2576040517f01ed2c3900000000000000000000000000000000000000000000000000000000815260040160405180910390fd5b3373ffffffffffffffffffffffffffffffffffffffff16815f015f9054906101000a900473ffffffffffffffffffffffffffffffffffffffff1673ffffffffffffffffffffffffffffffffffffffff1614610239576040517f9e818f0500000000000000000000000000000000000000000000000000000000815260040160405180910390fd5b806003015f9054906101000a900460ff1615610281576040517fc84f3b5c00000000000000000000000000000000000000000000000000000000815260040160405180910390fd5b600f81600201546102929190610759565b4210156102cb576040517f12acad0500000000000000000000000000000000000000000000000000000000815260040160405180910390fd5b80600101548214610308576040517f7fdfb9ab00000000000000000000000000000000000000000000000000000000815260040160405180910390fd5b6001816003015f6101000a81548160ff021916908315150217905550805f015f9054906101000a900473ffffffffffffffffffffffffffffffffffffffff1673ffffffffffffffffffffffffffffffffffffffff16827ffd961285cad48e3faa70ac194c700893691ff8ca5e228f41df3c4216f04435c960405160405180910390a3505050505050565b5f5f5f8381526020019081526020015f2060020154146103de576040517f1e9c63ac00000000000000000000000000000000000000000000000000000000815260040160405180910390fd5b60405180608001604052803373ffffffffffffffffffffffffffffffffffffffff1681526020018281526020014281526020015f15158152505f5f8381526020019081526020015f205f820151815f015f6101000a81548173ffffffffffffffffffffffffffffffffffffffff021916908373ffffffffffffffffffffffffffffffffffffffff16021790555060208201518160010155604082015181600201556060820151816003015f6101000a81548160ff0219169083151502179055509050503373ffffffffffffffffffffffffffffffffffffffff16817f014da346f1eee9a9a0e466b5406c84ea9a5b4d35bfeb399eebea697a6f66d05b426040516104e89190610618565b60405180910390a350565b5f5ffd5b5f819050919050565b610509816104f7565b8114610513575f5ffd5b50565b5f8135905061052481610500565b92915050565b5f6020828403121561053f5761053e6104f3565b5b5f61054c84828501610516565b91505092915050565b5f73ffffffffffffffffffffffffffffffffffffffff82169050919050565b5f61057e82610555565b9050919050565b61058e81610574565b82525050565b61059d816104f7565b82525050565b5f819050919050565b6105b5816105a3565b82525050565b5f8115159050919050565b6105cf816105bb565b82525050565b5f6080820190506105e85f830187610585565b6105f56020830186610594565b61060260408301856105ac565b61060f60608301846105c6565b95945050505050565b5f60208201905061062b5f8301846105ac565b92915050565b61063a81610574565b8114610644575f5ffd5b50565b5f8135905061065581610631565b92915050565b610664816105a3565b811461066e575f5ffd5b50565b5f8135905061067f8161065b565b92915050565b5f5f5f5f6080858703121561069d5761069c6104f3565b5b5f6106aa87828801610647565b94505060206106bb87828801610671565b93505060406106cc87828801610671565b92505060606106dd87828801610516565b91505092959194509250565b5f6080820190506106fc5f830187610585565b61070960208301866105ac565b61071660408301856105ac565b6107236060830184610594565b95945050505050565b7f4e487b71000000000000000000000000000000000000000000000000000000005f52601160045260245ffd5b5f610763826105a3565b915061076e836105a3565b92508282019050808211156107865761078561072c565b5b9291505056fea2646970667358221220f69f8c56192da08ac72f107890fe747f16a24d7fd616a970f725abf077b05f3d64736f6c634300081e0033",
        "linkReferences": {}
    },
    "methodIdentifiers": {
        "MIN_DELAY()": "9f81aed7",
        "commit(bytes32)": "f14fcbc8",
        "commitments(bytes32)": "839df945",
        "reveal(address,uint256,uint256,bytes32)": "a92810d8"
    },
    "id": 19
}