{
    "abi": [
        {
            "type": "function",
            "name": "MIN_DELAY",
            "inputs": [],
            "outputs": [
                {
                    "name": "",
                    "type": "uint256",
                    "internalType": "uint256"
                }
            ],
            "stateMutability": "view"
        },
        {
            "type": "function",
            "name": "commit",
            "inputs": [
                {
                    "name": "commitHash",
                    "type": "bytes32",
                    "internalType": "bytes32"
                }
            ],
            "outputs": [],
            "stateMutability": "nonpayable"
        },
        {
            "type": "function",
            "name": "commitments",
            "inputs": [
                {
                    "name": "commitHash",
                    "type": "bytes32",
                    "internalType": "bytes32"
                }
            ],
            "outputs": [
                {
                    "name": "user",
                    "type": "address",
                    "internalType": "address"
                },
                {
                    "name": "commitHash",
                    "type": "bytes32",
                    "internalType": "bytes32"
                },
                {
                    "name": "timestamp",
                    "type": "uint256",
                    "internalType": "uint256"
                },
                {
                    "name": "revealed",
                    "type": "bool",
                    "internalType": "bool"
                }
            ],
            "stateMutability": "view"
        },
        {
            "type": "function",
            "name": "reveal",
            "inputs": [
                {
                    "name": "to",
                    "type": "address",
                    "internalType": "address"
                },
                {
                    "name": "amount",
                    "type": "uint256",
                    "internalType": "uint256"
                },
                {
                    "name": "nonce",
                    "type": "uint256",
                    "internalType": "uint256"
                },
                {
                    "name": "salt",
                    "type": "bytes32",
                    "internalType": "bytes32"
                }
            ],
            "outputs": [],
            "stateMutability": "nonpayable"
        },
        {
            "type": "event",
            "name": "Committed",
            "inputs": [
                {
                    "name": "commitHash",
                    "type": "bytes32",
                    "indexed": true,
                    "internalType": "bytes32"
                },
                {
                    "name": "user",
                    "type": "address",
                    "indexed": true,
                    "internalType": "address"
                },
                {
                    "name": "timestamp",
                    "type": "uint256",
                    "indexed": false,
                    "internalType": "uint256"
                }
            ],
            "anonymous": false
        },
        {
            "type": "event",
            "name": "Revealed",
            "inputs": [
                {
                    "name": "commitHash",
                    "type": "bytes32",
                    "indexed": true,
                    "internalType": "bytes32"
                },
                {
                    "name": "user",
                    "type": "address",
                    "indexed": true,
                    "internalType": "address"
                }
            ],
            "anonymous": false
        },
        {
            "type": "error",
            "name": "CommitRegistry__AlreadyCommitted",
            "inputs": []
        },
        {
            "type": "error",
            "name": "CommitRegistry__AlreadyRevealed",
            "inputs": []
        },
        {
            "type": "error",
            "name": "CommitRegistry__InvalidReveal",
            "inputs": []
        },
        {
            "type": "error",
            "name": "CommitRegistry__NotOwner",
            "inputs": []
        },
        {
            "type": "error",
            "name": "CommitRegistry__RevealTooEarly",
            "inputs": []
        },
        {
            "type": "error",
            "name": "CommitRegistry__UnknownCommit",
            "inputs": []
        }
    ],
    "bytecode": {
        "object": "0x6080604052348015600e575f5ffd5b506107858061001c5f395ff3fe608060405234801561000f575f5ffd5b506004361061004a575f3560e01c8063839df9451461004e5780639f81aed714610081578063a92810d81461009f578063f14fcbc8146100bb575b5f5ffd5b610068600480360381019061006391906104ed565b6100d7565b6040516100789493929190610598565b60405180910390f35b61008961012d565b60405161009691906105db565b60405180910390f35b6100b960048036038101906100b49190610648565b610132565b005b6100d560048036038101906100d091906104ed565b610355565b005b5f602052805f5260405f205f91509050805f015f9054906101000a900473ffffffffffffffffffffffffffffffffffffffff1690806001015490806002015490806003015f9054906101000a900460ff16905084565b600f81565b5f8484848460405160200161014a94939291906106ac565b6040516020818303038152906040528051906020012090505f5f5f8381526020019081526020015f2090505f8160020154036101b2576040517f01ed2c3900000000000000000000000000000000000000000000000000000000815260040160405180910390fd5b3373ffffffffffffffffffffffffffffffffffffffff16815f015f9054906101000a900473ffffffffffffffffffffffffffffffffffffffff1673ffffffffffffffffffffffffffffffffffffffff1614610239576040517f9e818f0500000000000000000000000000000000000000000000000000000000815260040160405180910390fd5b806003015f9054906101000a900460ff1615610281576040517fc84f3b5c00000000000000000000000000000000000000000000000000000000815260040160405180910390fd5b600f8160020154610292919061071c565b4210156102cb576040517f12acad0500000000000000000000000000000000000000000000000000000000815260040160405180910390fd5b6001816003015f6101000a81548160ff021916908315150217905550805f015f9054906101000a900473ffffffffffffffffffffffffffffffffffffffff1673ffffffffffffffffffffffffffffffffffffffff16827ffd961285cad48e3faa70ac194c700893691ff8ca5e228f41df3c4216f04435c960405160405180910390a3505050505050565b5f5f5f8381526020019081526020015f2060020154146103a1576040517f1e9c63ac00000000000000000000000000000000000000000000000000000000815260040160405180910390fd5b60405180608001604052803373ffffffffffffffffffffffffffffffffffffffff1681526020018281526020014281526020015f15158152505f5f8381526020019081526020015f205f820151815f015f6101000a81548173ffffffffffffffffffffffffffffffffffffffff021916908373ffffffffffffffffffffffffffffffffffffffff16021790555060208201518160010155604082015181600201556060820151816003015f6101000a81548160ff0219169083151502179055509050503373ffffffffffffffffffffffffffffffffffffffff16817f014da346f1eee9a9a0e466b5406c84ea9a5b4d35bfeb399eebea697a6f66d05b426040516104ab91906105db565b60405180910390a350565b5f5ffd5b5f819050919050565b6104cc816104ba565b81146104d6575f5ffd5b50565b5f813590506104e7816104c3565b92915050565b5f60208284031215610502576105016104b6565b5b5f61050f848285016104d9565b91505092915050565b5f73ffffffffffffffffffffffffffffffffffffffff82169050919050565b5f61054182610518565b9050919050565b61055181610537565b82525050565b610560816104ba565b82525050565b5f819050919050565b61057881610566565b82525050565b5f8115159050919050565b6105928161057e565b82525050565b5f6080820190506105ab5f830187610548565b6105b86020830186610557565b6105c5604083018561056f565b6105d26060830184610589565b95945050505050565b5f6020820190506105ee5f83018461056f565b92915050565b6105fd81610537565b8114610607575f5ffd5b50565b5f81359050610618816105f4565b92915050565b61062781610566565b8114610631575f5ffd5b50565b5f813590506106428161061e565b92915050565b5f5f5f5f608085870312156106605761065f6104b6565b5b5f61066d8782880161060a565b945050602061067e87828801610634565b935050604061068f87828801610634565b92505060606106a0878288016104d9565b91505092959194509250565b5f6080820190506106bf5f830187610548565b6106cc602083018661056f565b6106d9604083018561056f565b6106e66060830184610557565b95945050505050565b7f4e487b71000000000000000000000000000000000000000000000000000000005f52601160045260245ffd5b5f61072682610566565b915061073183610566565b9250828201905080821115610749576107486106ef565b5b9291505056fea2646970667358221220f4d859efa637c93b743a8f4befe9889e692c0f4ffe4595957c0aaa282e203b5664736f6c634300081e0033",
        "linkReferences": {}
    },
    "methodIdentifiers": {
        "MIN_DELAY()": "9f81aed7",
        "commit(bytes32)": "f14fcbc8",
        "commitments(bytes32)": "839df945",
        "reveal(address,uint256,uint256,bytes32)": "a92810d8"
    },
    "id": 0
}